{
  "_format": "hh-sol-artifact-1",
  "contractName": "NetworkManager",
  "sourceName": "contracts/NetworkManager.sol",
  "abi": [
    {
      "inputs": [
        {
          "internalType": "uint256",
          "name": "_initialGasLimit",
          "type": "uint256"
        },
        {
          "internalType": "uint256",
          "name": "_maxGasLimit",
          "type": "uint256"
        }
      ],
      "stateMutability": "nonpayable",
      "type": "constructor"
    },
    {
      "anonymous": false,
      "inputs": [
        {
          "indexed": false,
          "internalType": "uint256",
          "name": "newLimit",
          "type": "uint256"
        }
      ],
      "name": "GasLimitUpdated",
      "type": "event"
    },
    {
      "anonymous": false,
      "inputs": [
        {
          "indexed": false,
          "internalType": "address",
          "name": "nodeAddress",
          "type": "address"
        }
      ],
      "name": "NodeRegistered",
      "type": "event"
    },
    {
      "inputs": [],
      "name": "currentGasLimit",
      "outputs": [
        {
          "internalType": "uint256",
          "name": "",
          "type": "uint256"
        }
      ],
      "stateMutability": "view",
      "type": "function"
    },
    {
      "inputs": [],
      "name": "getRegisteredNodes",
      "outputs": [
        {
          "internalType": "address[]",
          "name": "",
          "type": "address[]"
        }
      ],
      "stateMutability": "view",
      "type": "function"
    },
    {
      "inputs": [],
      "name": "maxGasLimit",
      "outputs": [
        {
          "internalType": "uint256",
          "name": "",
          "type": "uint256"
        }
      ],
      "stateMutability": "view",
      "type": "function"
    },
    {
      "inputs": [
        {
          "internalType": "address",
          "name": "",
          "type": "address"
        }
      ],
      "name": "nodes",
      "outputs": [
        {
          "internalType": "address",
          "name": "nodeAddress",
          "type": "address"
        },
        {
          "internalType": "bool",
          "name": "isActive",
          "type": "bool"
        }
      ],
      "stateMutability": "view",
      "type": "function"
    },
    {
      "inputs": [],
      "name": "owner",
      "outputs": [
        {
          "internalType": "address",
          "name": "",
          "type": "address"
        }
      ],
      "stateMutability": "view",
      "type": "function"
    },
    {
      "inputs": [
        {
          "internalType": "address",
          "name": "nodeAddress",
          "type": "address"
        }
      ],
      "name": "registerNode",
      "outputs": [],
      "stateMutability": "nonpayable",
      "type": "function"
    },
    {
      "inputs": [
        {
          "internalType": "uint256",
          "name": "",
          "type": "uint256"
        }
      ],
      "name": "registeredNodes",
      "outputs": [
        {
          "internalType": "address",
          "name": "",
          "type": "address"
        }
      ],
      "stateMutability": "view",
      "type": "function"
    },
    {
      "inputs": [
        {
          "internalType": "uint256",
          "name": "newLimit",
          "type": "uint256"
        }
      ],
      "name": "setGasLimit",
      "outputs": [],
      "stateMutability": "nonpayable",
      "type": "function"
    }
  ],
  "bytecode": "0x608060405234801561001057600080fd5b50604051610b0b380380610b0b833981810160405281019061003291906100c2565b336000806101000a81548173ffffffffffffffffffffffffffffffffffffffff021916908373ffffffffffffffffffffffffffffffffffffffff16021790555081600181905550806002819055505050610102565b600080fd5b6000819050919050565b61009f8161008c565b81146100aa57600080fd5b50565b6000815190506100bc81610096565b92915050565b600080604083850312156100d9576100d8610087565b5b60006100e7858286016100ad565b92505060206100f8858286016100ad565b9150509250929050565b6109fa806101116000396000f3fe608060405234801561001057600080fd5b50600436106100885760003560e01c80638da5cb5b1161005b5780638da5cb5b146101285780638f875edd14610146578063cf8c6f5214610164578063ee7d72b41461018257610088565b8063189a5a171461008d5780635e45da23146100be57806361ca89fa146100dc578063672d7a0d1461010c575b600080fd5b6100a760048036038101906100a29190610667565b61019e565b6040516100b59291906106be565b60405180910390f35b6100c66101ef565b6040516100d39190610700565b60405180910390f35b6100f660048036038101906100f19190610747565b6101f5565b6040516101039190610774565b60405180910390f35b61012660048036038101906101219190610667565b610234565b005b610130610438565b60405161013d9190610774565b60405180910390f35b61014e61045c565b60405161015b9190610700565b60405180910390f35b61016c610462565b604051610179919061084d565b60405180910390f35b61019c60048036038101906101979190610747565b6104f0565b005b60036020528060005260406000206000915090508060000160009054906101000a900473ffffffffffffffffffffffffffffffffffffffff16908060000160149054906101000a900460ff16905082565b60025481565b6004818154811061020557600080fd5b906000526020600020016000915054906101000a900473ffffffffffffffffffffffffffffffffffffffff1681565b600360008273ffffffffffffffffffffffffffffffffffffffff1673ffffffffffffffffffffffffffffffffffffffff16815260200190815260200160002060000160149054906101000a900460ff16156102c4576040517f08c379a00000000000000000000000000000000000000000000000000000000081526004016102bb906108cc565b60405180910390fd5b60405180604001604052808273ffffffffffffffffffffffffffffffffffffffff16815260200160011515815250600360008373ffffffffffffffffffffffffffffffffffffffff1673ffffffffffffffffffffffffffffffffffffffff16815260200190815260200160002060008201518160000160006101000a81548173ffffffffffffffffffffffffffffffffffffffff021916908373ffffffffffffffffffffffffffffffffffffffff16021790555060208201518160000160146101000a81548160ff0219169083151502179055509050506004819080600181540180825580915050600190039060005260206000200160009091909190916101000a81548173ffffffffffffffffffffffffffffffffffffffff021916908373ffffffffffffffffffffffffffffffffffffffff1602179055507f564728e6a7c8edd446557d94e0339d5e6ca2e05f42188914efdbdc87bcbbabf68160405161042d9190610774565b60405180910390a150565b60008054906101000a900473ffffffffffffffffffffffffffffffffffffffff1681565b60015481565b606060048054806020026020016040519081016040528092919081815260200182805480156104e657602002820191906000526020600020905b8160009054906101000a900473ffffffffffffffffffffffffffffffffffffffff1673ffffffffffffffffffffffffffffffffffffffff168152602001906001019080831161049c575b5050505050905090565b60008054906101000a900473ffffffffffffffffffffffffffffffffffffffff1673ffffffffffffffffffffffffffffffffffffffff163373ffffffffffffffffffffffffffffffffffffffff161461057e576040517f08c379a000000000000000000000000000000000000000000000000000000000815260040161057590610938565b60405180910390fd5b6002548111156105c3576040517f08c379a00000000000000000000000000000000000000000000000000000000081526004016105ba906109a4565b60405180910390fd5b806001819055507f3d1394ba0f6fca9c1e344f10a3efe1bfca63bc591232bb0d76755690f409450c816040516105f99190610700565b60405180910390a150565b600080fd5b600073ffffffffffffffffffffffffffffffffffffffff82169050919050565b600061063482610609565b9050919050565b61064481610629565b811461064f57600080fd5b50565b6000813590506106618161063b565b92915050565b60006020828403121561067d5761067c610604565b5b600061068b84828501610652565b91505092915050565b61069d81610629565b82525050565b60008115159050919050565b6106b8816106a3565b82525050565b60006040820190506106d36000830185610694565b6106e060208301846106af565b9392505050565b6000819050919050565b6106fa816106e7565b82525050565b600060208201905061071560008301846106f1565b92915050565b610724816106e7565b811461072f57600080fd5b50565b6000813590506107418161071b565b92915050565b60006020828403121561075d5761075c610604565b5b600061076b84828501610732565b91505092915050565b60006020820190506107896000830184610694565b92915050565b600081519050919050565b600082825260208201905092915050565b6000819050602082019050919050565b6107c481610629565b82525050565b60006107d683836107bb565b60208301905092915050565b6000602082019050919050565b60006107fa8261078f565b610804818561079a565b935061080f836107ab565b8060005b8381101561084057815161082788826107ca565b9750610832836107e2565b925050600181019050610813565b5085935050505092915050565b6000602082019050818103600083015261086781846107ef565b905092915050565b600082825260208201905092915050565b7f4e6f646520616c72656164792072656769737465726564000000000000000000600082015250565b60006108b660178361086f565b91506108c182610880565b602082019050919050565b600060208201905081810360008301526108e5816108a9565b9050919050565b7f4e6f7420617574686f72697a6564000000000000000000000000000000000000600082015250565b6000610922600e8361086f565b915061092d826108ec565b602082019050919050565b6000602082019050818103600083015261095181610915565b9050919050565b7f45786365656473206d617820676173206c696d69740000000000000000000000600082015250565b600061098e60158361086f565b915061099982610958565b602082019050919050565b600060208201905081810360008301526109bd81610981565b905091905056fea26469706673582212203f4734f6067059735bce80ce824aa6cc971506feb47920ad5e08b338c697bc5d64736f6c63430008120033",
  "linkReferences": {},
  "deployedLinkReferences": {}
}